:020000040000FA
:100000000C94DF000C9427080C9400080C94070152
:100010000C9407010C9407010C9407010C94070140
:100020000C9407010C9407010C9407010C94070130
:100030000C9407010C9407010C9407010C94070120
:100040000C94B6070C9407010C9474080C944E0899
:100050000C9407010C9407010C9407010C94070100
:100060000C94A6080C94070100407A10F35A00A0E3
:10007000724E18090010A5D4E80000E87648170071
:1000800000E40B54020000CA9A3B000000E1F505B1
:10009000000080969800000040420F000000A086FB
:1000A00001000000102700000000E803000000002D
:1000B0006400000000000A000000000001000000D1
:1000C00000002C76D888DC674F0823DFC1DFAE59EB
:1000D000E1B1B796E5E3E453C63AE651997696E87E
:1000E000E6C28426EB898C9B62ED407C6FFCEFBC02
:1000F0009C9F40F2BAA56FA5F490055A2AF75C932D
:100100006B6CF9676DC11BFCE0E40D47FEF520E662
:10011000B500D0ED902E0300943577050080841E45
:10012000080000204E0A000000C80C333333330FA0
:10013000986E12831141EF8D2114893BE65516CF3D
:10014000FEE6DB18D1844B381BF77C1D901DA4BB49
:10015000E424203284725E228100C9F124ECA1E5FE
:100160003D2700000000240027002A0000000000B6
:10017000250028002B0000000008000201000003F9
:100180000407000000000000000000000000230041
:1001900026002900040404040404040402020202E8
:1001A000020203030303030301020408102040803A
:1001B000010204081020010204081020C5091124BE
:1001C0001FBECFEFD8E0DEBFCDBF11E0A0E0B1E0B1
:1001D000ECE2F5E202C005900D92A03AB107D9F722
:1001E00023E0A0EAB1E001C01D92AE34B207E1F70E
:1001F00010E0CFEDD0E004C02197FE010E948E12E6
:10020000CE3DD107C9F70E942F0A0C9494120C948A
:100210000000CF92DF92EF92FF92CF93DF93B091E5
:100220004203A0E08111AB2F8091430390E0880F3F
:10023000991FAC0146575E4FC0904803D0904903C8
:10024000E0904A03F0904B0330E020E0FA01C591C2
:10025000D491E881B90190E080E0EB23EA130AC071
:100260002F5F3F4F6C157D058E059F0578F36FEF6F
:100270007FEFCB01DF91CF91FF90EF90DF90CF9098
:10028000089590E0FC01EA58FE4F2491FC01E855E6
:10029000FE4F3491FC01EC56FE4FE491EE23C9F081
:1002A000222339F0233001F1A8F4213019F1223052
:1002B00029F1F0E0EE0FFF1FE459FE4FA591B49134
:1002C0008FB7F894EC91611126C030953E233C9392
:1002D0008FBF08952730A9F02830C9F0243049F79E
:1002E000809180008F7D03C0809180008F77809304
:1002F0008000DFCF84B58F7784BDDBCF84B58F7D61
:10030000FBCF8091B0008F778093B000D2CF8091E7
:10031000B0008F7DF9CF3E2BDACFCF93DF9390E003
:10032000FC01E855FE4F24918C569E4FFC018491B0
:100330008823D1F090E0880F991FFC01EE59FE4F01
:10034000A591B491FC01E459FE4FC591D49162305E
:1003500071F49FB7F8943C91822F809583238C93FE
:10036000E8812E2B28839FBFDF91CF9108958FB70F
:10037000F894EC912E2B2C938FBFF6CF8E50806487
:1003800080937C0080917A00806480937A008091D1
:100390007A0086FDFCCF80917800909179000895D5
:1003A0003FB7F8948091820290918302A0918402D9
:1003B000B091850226B5A89B05C02F3F19F0019684
:1003C000A11DB11D3FBFBA2FA92F982F8827BC01AF
:1003D000CD01620F711D811D911D42E0660F771FD7
:1003E000881F991F4A95D1F708958F929F92AF92D7
:1003F000BF92CF92DF92EF92FF924B015C010E947D
:10040000D0016B017C010E94D0016C197D098E091D
:100410009F09683E734081059105A8F321E0821A87
:100420009108A108B10888EEC80E83E0D81EE11C2F
:10043000F11C81149104A104B10429F7FF90EF90FD
:10044000DF90CF90BF90AF909F908F9008952FB77F
:10045000F89460917E0270917F0280918002909169
:1004600081022FBF0895CF92DF92EF92FF920F93F8
:100470001F93CF93DF93CDB7DEB7C054D1400FB6F3
:10048000F894DEBF0FBECDBF0E9427020091440347
:100490001091450320914603309147036B017C0185
:1004A000C01AD10AE20AF30A97018601003D1740FB
:1004B0002105310590F480914C03C05CDE4F0FB6EE
:1004C000F894DEBF0FBECDBFDF91CF911F910F918A
:1004D000FF90EF90DF90CF90089560934403709366
:1004E0004503809346039093470310923F03109275
:1004F0003E0310923D0310923C0310923B0362E0D6
:10050000809140030E948D0161E070E080E090E006
:100510000E94F50161E0809140030E948D0160E03E
:10052000809140030E9441018091410385518230B6
:1005300020F58BE291E10197F1F762E080914003B1
:100540000E948D0180914D0390E08230910538F03A
:10055000880F991F880F991F05970197F1F7F89455
:1005600080E00E9409016F3F7F4F8F4F9F4F61F4E2
:1005700010924C03789480E0A0CF64E170E080E0BA
:1005800090E00E94F501D9CF81E00E9409016F3F00
:100590007F4F8F4F9F4F61F38E010F5F1F4F6E0193
:1005A0002FEBC21A2EEFD20A780180E00E940901D7
:1005B000F701608371838283938381E00E94090144
:1005C000F7016483758386839783F8E0EF0EF11C4F
:1005D000EC14FD0451F7789430E020E0F801C0807D
:1005E000D180E280F3804481558166817781FFEF7D
:1005F000CF16DF06EF06FF0631F04F3F8FEF5807AB
:100600006807780719F410924C03B5CFF90183E01D
:10061000F595E7958A95E1F7E55CFC4F8081880FB9
:10062000C416D506E606F70610F180832F5F3F4F0C
:10063000085F1F4F2832310589F640913F03209112
:100640003B0380913C03280F3327331F80913D03E8
:10065000280F311D80913E03820F932F911D992702
:100660004817190681F681E080934C0326CF8160FC
:10067000DCCF109204010895089508950895AF9273
:10068000BF92CF92DF92EF92FF920F931F93CF937F
:10069000DF936C017B018B01040F151FEB015E01E1
:1006A000AE18BF08C017D10759F06991D601ED9176
:1006B000FC910190F081E02DC6010995892B79F715
:1006C000C501DF91CF911F910F91FF90EF90DF90C7
:1006D000CF90BF90AF900895FC01538D448D252F8E
:1006E00030E0842F90E0821B930B541710F0CF96CC
:1006F000089501970895FC01918D828D981761F0FE
:10070000A28DAE0FBF2FB11D5D968C91928D9F5F14
:100710009F73928F90E008958FEF9FEF0895FC01F3
:10072000918D828D981731F0828DE80FF11D858DA6
:1007300090E008958FEF9FEF0895FC01918D228D39
:10074000892F90E0805C9F4F821B91098F739927BE
:10075000089586E892E00E949D0321E0892B09F428
:1007600020E0822F089580E090E0892B29F00E94FC
:10077000A90381110C9400000895FC01A48DA80F19
:10078000B92FB11DA35ABF4F2C91848D90E00196D3
:100790008F739927848FA689B7892C93A089B189F3
:1007A0008C91837080648C93938D848D981306C094
:1007B0000288F389E02D80818F7D80830895EF92F8
:1007C000FF920F931F93CF93DF93EC0181E0888F0B
:1007D0009B8D8C8D98131AC0E889F989808185FFDB
:1007E00015C09FB7F894EE89FF896083E889F9897D
:1007F00080818370806480839FBF81E090E0DF917F
:10080000CF911F910F91FF90EF900895F62E0B8DD1
:1008100010E00F5F1F4F0F731127E02E8C8D8E118C
:100820000CC00FB607FCFACFE889F989808185FFF3
:10083000F5CFCE010E94BD03F1CFEB8DEC0FFD2F64
:10084000F11DE35AFF4FF0829FB7F8940B8FEA89AE
:10085000FB8980818062CFCFCF93DF93EC01888DBD
:100860008823B9F0AA89BB89E889F9898C9185FD2B
:1008700003C0808186FD0DC00FB607FCF7CF8C91B9
:1008800085FFF2CF808185FFEDCFCE010E94BD03B1
:10089000E9CFDF91CF91089508952091E101260FCE
:1008A0003327331F21323105ECF420912A02FC0159
:1008B00090E080E0243069F082E00895A091E101A9
:1008C0002191AC014F535E4FA40FB52FB11D2C9356
:1008D0000196861798F38091E101680F6093E1011A
:1008E00080E0089581E0089510922A0281E08093CB
:1008F00029021092040261E082E10E94410161E05C
:1009000083E10E944101E9EBF0E080818E7F8083EA
:1009100080818D7F808388E48093B80085E4809314
:10092000BC000895CF93DF9391E09093C00188239A
:10093000B9F0C091B800D091BA008091BC008A7B18
:100940008093BC0060E082E10E94410160E083E1AD
:100950000E9441010E947404D093BA00C093B80071
:10096000DF91CF9108950895E09159028091580246
:10097000E81730F4F0E0E056FE4F808190E00895F3
:100980008FEF9FEF089590915902809158022FEFB9
:100990003FEF981748F4E92FF0E0E056FE4F208132
:1009A00030E09F5F90935902C901089580915802E9
:1009B00090915902891B990B0895CF92DF92EF9283
:1009C000FF920F931F93CF93DF937C01CB018A019A
:1009D00020913002222389F0EB016B01C40ED51E59
:1009E000CC15DD0569F06991D701ED91FC9101907D
:1009F000F081E02DC7010995F3CF642F0E944D04CB
:100A0000C801DF91CF911F910F91FF90EF90DF9080
:100A1000CF900895CF93DF931F92CDB7DEB7698350
:100A2000209130022223F9F020915602203258F012
:100A300021E030E0FC013383228390E080E00F90DE
:100A4000DF91CF91089580915702E82FF0E0EF5C9D
:100A5000FD4F998190838F5F809357028093560258
:100A600081E090E0ECCF61E0CE0101960E944D0460
:100A7000F7CFCF92DF92EF92FF920F931F93CF9316
:100A8000DF93FC01C48121E020933002C093510226
:100A900010925702109256028385682B83E293E0EE
:100AA0000E940A05D0915602D13208F092C00E94ED
:100AB000D0016B017C0180912A02811165C082E026
:100AC00080932A0281E0809329028FEF809328028D
:100AD00010922702D0932602A1E3B2E0E6E0F2E012
:100AE00080E0D81385C01092050280910502CC0FDA
:100AF000C82BC093050280910402813009F07CC0AC
:100B0000109204020E94D0016B017C0180910502C9
:100B10008093BB0080912C0290912D02A0912E0217
:100B2000B0912F02892B8A2B8B2B99F00E94D00138
:100B300000912C0210912D0220912E0230912F0253
:100B40006C197D098E099F090617170728073907B1
:100B5000E0F18091BC0083FDD9CF85EC8093BC008F
:100B60000E94D0016B017C0180912A02823009F43D
:100B700045C0809128028F3F61F180912802803228
:100B800041F18091280225C080912C0290912D0284
:100B9000A0912E02B0912F02892B8A2B8B2B09F466
:100BA0008ACF0E94D00100912C0210912D02209139
:100BB0002E0230912F026C197D098E099F090617AC
:100BC00017072807390708F076CF80912B020E947B
:100BD0009204109257021092560210923002DF9146
:100BE000CF911F910F91FF90EF90DF90CF900895DC
:100BF0009D9191938F5F75CF85EEB0CF80912C0240
:100C000090912D02A0912E02B0912F02892B8A2B58
:100C10008B2B09F4A9CF0E94D00100912C021091D6
:100C20002D0220912E0230912F026C197D098E0920
:100C30009F09061717072807390708F095CFC5CF72
:100C400090E080E00895BF92CF92DF92EF92FF9202
:100C50000F931F93CF93DF93B82EC9E1D0E00FEF2E
:100C600010E0811104C0CFEFD0E009E110E0C8012D
:100C70008C1B9D0B64E670E00E945F126B0189E79C
:100C8000E82E81E0F82EBB2069F00C171D076CF4EC
:100C9000DF91CF911F910F91FF90EF90DF90CF9058
:100CA000BF900895C017D1079CF361E083E00E94D4
:100CB0008D01209769F460E083E00E9441016AE0C1
:100CC00070E080E090E00E94F501CC0DDD1DDBCFEF
:100CD000CF3FD10511F461E0EFCFF701849183306C
:100CE00019F140F48130B1F08230C9F0C038D1053B
:100CF00094F7E1CF873011F1883041F18430B1F7BA
:100D000080918000806280938000D0938B00C0939C
:100D10008A00D5CF84B5806884BDC7BDD0CF84B5E7
:100D2000806284BDC8BDCBCF8091800080688093F5
:100D30008000D0938900C0938800C1CF8091B0001B
:100D400080688093B000C093B300B9CF8091B000A9
:100D500080628093B000C093B400B1CF8F929F9215
:100D6000AF92BF920F931F93CF93DF93CDB7DEB7B0
:100D7000A1970FB6F894DEBF0FBECDBF19A24230C7
:100D800008F44AE08E010F5D1F4F842E912CB12C88
:100D9000A12CA50194010E949310E62FB901CA016C
:100DA000EA3044F5E05DD801EE938D01232B242B2E
:100DB000252B79F790E080E0109769F0FD01019014
:100DC0000020E9F73197AF014A1B5B0BBD018FE2B1
:100DD00093E00E943F03A1960FB6F894DEBF0FBECA
:100DE000CDBFDF91CF911F910F91BF90AF909F909A
:100DF0008F900895E95CD7CFFC0101900020E9F7BE
:100E00003197AF01481B590BBC018FE293E00C9462
:100E10003F030F931F93CF938C01C62F0E94390578
:100E20006C2F6460C8010E9439056C2F6B7FC8016C
:100E30000E94390583EC90E00197F1F7CF911F9163
:100E40000F9108950F931F93CF93DF938C01D62FAB
:100E5000C42F607F642B0E94090780E1D89FB001F6
:100E600011246C2BC801DF91CF911F910F910C942D
:100E7000090740E061E08FE293E00E9422078BE3E4
:100E80009FE10197F1F70895CF93DF93CDB7DEB7D8
:100E900028970FB6F894DEBF0FBECDBF98E0E5E00F
:100EA000F1E0DE01119601900D929A95E1F7909193
:100EB0003803961710F46FEF690F262F30E0220FDA
:100EC000331F41E050E04C0F5D1F240F351FF90127
:100ED0006081680F606840E08FE293E028960FB66B
:100EE000F894DEBF0FBECDBFDF91CF910C942207E7
:100EF00041E00E94220781E090E0089585ED809313
:100F0000BC0080912C0290912D02A0912E02B091F4
:100F10002F020796A11DB11D23E0B695A7959795C1
:100F200087952A95D1F72091BC0024FD03C010922B
:100F30002A02089540912C0250912D0260912E02B8
:100F400070912F02452B462B472B69F30097A10583
:100F5000B10541F02AE22A95F1F700C00197A109F5
:100F6000B109E1CF80912B020C9492041F920F9251
:100F70000FB60F9211242F933F938F939F93AF93AC
:100F8000BF9380917E0290917F02A0918002B091E8
:100F9000810230917D0223E0230F2D3758F5019611
:100FA000A11DB11D20937D0280937E0290937F024C
:100FB000A0938002B093810280918202909183027B
:100FC000A0918402B09185020196A11DB11D80936C
:100FD000820290938302A0938402B0938502BF9112
:100FE000AF919F918F913F912F910F900FBE0F90D6
:100FF0001F90189526E8230F0296A11DB11DD2CF90
:101000001F920F920FB60F9211242F933F934F937D
:101010005F936F937F938F939F93AF93BF93EF9360
:10102000FF93E0910201F09103010995FF91EF9187
:10103000BF91AF919F918F917F916F915F914F91F0
:101040003F912F910F900FBE0F901F9018951F92F8
:101050000F920FB60F9211242F933F934F935F93EC
:101060006F937F938F939F93AF93BF93EF93FF9370
:10107000E0910001F09101010995FF91EF91BF917D
:10108000AF919F918F917F916F915F914F913F9120
:101090002F910F900FBE0F901F9018951F920F92D7
:1010A0000FB60F9211242F933F934F935F936F933B
:1010B0007F938F939F93AF93BF93EF93FF9386E8B4
:1010C00092E00E94BD03FF91EF91BF91AF919F917C
:1010D0008F917F916F915F914F913F912F910F90E1
:1010E0000FBE0F901F9018951F920F920FB60F9280
:1010F00011242F938F939F93EF93FF93E091960288
:10110000F09197028081E0919C02F0919D0282FD16
:101110001BC0908180919F028F5F8F732091A002EE
:10112000821741F0E0919F02F0E0EA57FD4F958F62
:1011300080939F02FF91EF919F918F912F910F903C
:101140000FBE0F901F9018958081F4CF1F920F92C1
:101150000FB60F9211242F933F934F935F936F938A
:101160007F938F939F93AF93BF93EF93FF93809160
:10117000B900887F803609F44AC0F0F5883209F456
:10118000A7C018F5803109F49BC0B8F4882309F48E
:10119000F9C0883009F494C0FF91EF91BF91AF91ED
:1011A0009F918F917F916F915F914F913F912F917F
:1011B0000F900FBE0F901F901895883109F488C0CA
:1011C000803251F78093280214C0803409F49DC006
:1011D00040F48033B9F38833F9F68093280285EC24
:1011E000B0C0803509F485C0883509F496C08834CC
:1011F00099F60E947E07D0CF883909F48CC038F563
:10120000883729F050F4883611F0803729F683E0CA
:1012100080932A021092030257C0883809F47BC0D9
:10122000803919F0803809F0B7CF809103028032FD
:1012300008F071C0E091030281E08E0F80930302F9
:101240008091BB00F0E0ED51FE4F80833DC0803BBC
:1012500039F0E0F4803A09F479C0883A09F09CCF7B
:1012600084E080932A021092E2011092E101E09161
:101270005402F091550209958091E10181110FC04E
:1012800081E08093E1011092C10109C0803C09F422
:10129000A6CF883C09F4A3CF883B09F07DCFE0912D
:1012A000E20181E08E0F8093E201F0E0EF53FE4F08
:1012B00080818093BB009091E2018091E10129C07F
:1012C000809105028093BB0085EC8093BC0064CFC5
:1012D0009091270280912602981758F5E0912702F5
:1012E00081E08E0F80932702F0E0EA5FFD4F80815E
:1012F000E9CFE091270281E08E0F80932702809151
:10130000BB00F0E0EA5FFD4F80839091270280915F
:1013100026029817C8F285E8D8CFE091270281E02D
:101320008E0F809327028091BB00F0E0EA5FFD4FB3
:1013300080838091290281115CCF81E08093040237
:1013400084EA8093BC0010922A0226CF85EC809319
:10135000BC0010922A0280910302803230F4E091A6
:101360000302F0E0ED51FE4F10826091030270E045
:10137000E0915202F091530283EE91E009951092B0
:1013800003020ACF1092280234CFE6E8F2E013827B
:10139000128288EE93E0A0E0B0E084839583A68378
:1013A000B78329E131E03183208325EC30E03587B4
:1013B000248724EC30E03787268720EC30E0318B1F
:1013C000208B21EC30E0338B228B22EC30E0358B0C
:1013D000248B26EC30E0378B268B118E128E138EE9
:1013E000148EE3E2F3E01382128284839583A68352
:1013F000B7838BE291E091838083ABE3B3E085E038
:1014000015968C93159786E116968C931697EDEAB0
:10141000F1E0E4911796EC931797E9E9F1E0E49194
:101420001896EC93189740E85EE360E070E01D9634
:101430004D935D936D937C935097EFE2F3E01382AD
:1014400012828DE391E09183808387E2848384E13B
:10145000808784E08187128688E083870895CF9310
:10146000DF93CDB7DEB728970FB6F894DEBF0FBE77
:10147000CDBF789484B5826084BD84B5816084BD1D
:1014800085B5826085BD85B5816085BD80916E0022
:10149000816080936E001092810080918100826053
:1014A0008093810080918100816080938100809190
:1014B00080008160809380008091B100846080937F
:1014C000B1008091B00081608093B00080917A007B
:1014D000846080937A0080917A00826080937A00A1
:1014E00080917A00816080937A0080917A00806890
:1014F00080937A001092C100E0919602F0919702D9
:1015000082E08083E0919202F09193021082E09158
:101510009402F09195028FEC808310929E02E091EC
:101520009A02F0919B0286E08083E0919802F0910C
:101530009902808180618083E0919802F091990204
:10154000808188608083E0919802F0919902808187
:1015500080688083E0919802F091990280818F7D6C
:10156000808362E0809140030E948D010E942702E7
:10157000605D77408109910960934403709345034E
:10158000809346039093470387E380934D0361E084
:1015900084E00E948D0162E082E00E948D0189E377
:1015A00093E09093010180930001809169008C7F0A
:1015B000826080936900E89A109259021092580252
:1015C00010925702109256020E9474048CE393E02A
:1015D00090935502809354028DE393E090935302CD
:1015E000809352021092340380913803823018F0B5
:1015F00098E09093340390913903992339F0813026
:1016000029F48091340384608093340362E370E0B2
:1016100080E090E00E94F50160913A038FE293E050
:101620000E94390568EE73E080E090E00E94F501C9
:1016300060E38FE293E00E9409070BE416E4C8011F
:101640000197F1F760E38FE293E00E940907C80178
:101650000197F1F760E38FE293E00E94090783E5C9
:1016600092E00197F1F760E28FE293E00E940907B0
:1016700060913403606240E08FE293E00E942207B1
:1016800084E08093350340E06CE08FE293E00E94B9
:1016900022070E94390782E08093360340E066E02B
:1016A0008FE293E00E94220740E062E08FE293E045
:1016B0000E9422078BE39FE10197F1F718E0109356
:1016C0003A0360E08FE293E00E94390581E00E94D6
:1016D0002306EDE0F1E0DE01119601900D921A95DE
:1016E000E1F740E060E48FE293E00E9422078E0180
:1016F0000F5F1F4F7E0129E0E20EF11CF80161919E
:101700008F018FE293E00E9478070E151F05B1F755
:1017100044244A9433E0532E612C712C4EE1242E44
:10172000312C0E943302882341F0809141038C3098
:1017300009F46AC048F48B3001F1C12CD12C90EC33
:10174000E92E9FE7F92E43C085518230B0F7109102
:101750003D03612F70E0762F662766277F778091A3
:101760003E03682B90E080E00E9436112DEC3CECAB
:101770004CEC5DE30E94ED1163C060913D0370E0AD
:1017800090E080E00E9436116B017C0110913E03D5
:1017900017FF0AC0AC019B0160E070E080E89FEB9E
:1017A0000E94C4106B017C011F70612F70E090E0FB
:1017B00080E00E9438112DEC3CEC4CEC5DE30E9483
:1017C000ED11A70196010E94C5106B017C01C0922A
:1017D0007902D0927A02E0927B02F0927C020E941F
:1017E0003302882351F0809141038B3030F08D30EB
:1017F00080F18551823008F487C0812C912C80ECD7
:10180000A82E8FE7B82E43C010913D03612F70E0E2
:1018100090E080E00E9436116B017C0160913E03F4
:101820006F7070E090E080E00E9438112DEC3CEC8D
:101830004CEC5DE30E94ED11A70196010E94C510DA
:101840006B017C0117FFC3CFF7FAF094F7F8F0941F
:10185000BECF60913C0370E090E080E00E943811C0
:101860002DEC3CEC4CEC5DE30E94ED114B015C0176
:1018700060913B0370E090E080E00E9438119B0192
:10188000AC01C501B4010E94C5104B015C018092FE
:10189000750290927602A0927702B0927802A70128
:1018A0009601C701B6010E945A12811108C0A50114
:1018B0009401C501B4010E945A128823B9F10E9413
:1018C000390760E080E00E9444078DE491E00E94C7
:1018D000FC0661E080E00E9444078BE591E00E94F5
:1018E000FC0660ED77E080E090E00E94F501E0E02A
:1018F000F0E0EF2B09F415CF0E94A903882309F427
:1019000010CF0E9400000DCF60913B0370913C030B
:1019100076276727762790E080E00E9436112DEC2D
:101920003CEC4CEC5DE30E94ED11AFCF8EE00E94E9
:10193000BE0120E530E0DC010E947312A301920198
:101940000E943D10DA01C9014496A11DB11D8F31DD
:1019500091050CF41BC190937402809373028091E3
:101960007302909174028A35910534F08AE590E013
:101970009093740280937302009173021091740229
:10198000B801012E000C880B990B0E943811A5019B
:1019900094010E94311118160CF4FDC061E084E03E
:1019A0000E94410181E080937202809104018823AA
:1019B00039F0809170029091710208171907E9F0CF
:1019C00080916F02811119C081E00E942306BB241F
:1019D000B394B0926E020E94270260936A027093E1
:1019E0006B0280936C0290936D02B092040110938D
:1019F000710200937002B0926F0280916E02882390
:101A0000D1F00E94270200916A0210916B0220918E
:101A10006C0230916D02601B710B820B930B603670
:101A20007A4E8105910538F080E00E9423061092DD
:101A30006E0210926F020E942702009166021091BE
:101A400067022091680230916902601B710B820B62
:101A5000930B6C3D75408105910508F47FC00E9491
:101A600027026093660270936702809368029093E6
:101A7000690200E612E020E042E0C701B6010E94E0
:101A8000E80D6091750270917602809177029091D5
:101A900078020AE512E020E042E00E94E80D0E9490
:101AA000390760E080E00E94440786E691E00E94EA
:101AB000FC0680E692E00E94FC0660E08FE293E084
:101AC0000E94780780E791E00E94FC0661E080E0D8
:101AD0000E94440782E791E00E94FC06C8010E9430
:101AE000FC068CE791E00E94FC0662E080E00E9428
:101AF00044078FE791E00E94FC06C0907302D090EB
:101B000074020D2C000CEE08FF084AE0C701B60174
:101B1000F7FE0EC041E06DE28FE293E00E942207E3
:101B200066277727CB016C197D098E099F094AE04A
:101B30000E94AE068CE791E00E94FC0663E080E024
:101B40000E94440789E891E00E94FC06809172029D
:101B50008823C1F185E491E00E94FC068FE00E9499
:101B6000BE018C0163E081E10E94440783E991E0BA
:101B7000053823E012073CF40D53110908341340D3
:101B800020F587E991E00E94FC06B1CE3092740204
:101B900020927302E4CEB80166507109072E000C42
:101BA000880B990B0E943811A50194010E94E8113D
:101BB00018160CF0FACE60E084E00E944101109209
:101BC0007202F3CE89E491E0C7CF8BE991E0DBCFDD
:101BD000EF920F931F93CF93DF93E80134E047FD1B
:101BE00034E1042E000C550B57FF03C0519541956D
:101BF0005109E32E022F242FAE010E94060ECE01C2
:101C0000DF91CF911F910F91EF900895A9E0B0E07F
:101C1000ECE0FEE00C9462106A01F22EB02E102F60
:101C2000FBE3AF2EA01608F41BE31F5F012F27E094
:101C3000AE014F5F5F4F0E94650FBC018981982FF5
:101C40009970913009F43FC09BE2E1FC04C09E2DE5
:101C50009170E0FC3AC05E2D5071E82FE87083FF70
:101C600046C084E0911101C083E0EF2DE81B8F1581
:101C700008F0E0E0D6018E2F20E2552351F19923A0
:101C800029F0D6019C93C60101966C0196012D5F47
:101C90003F4FE2FE24C08EE4D6018C9391E411966E
:101CA0009C93119712968C93D9018E2F90E28111FB
:101CB0001BC0E20FF32FF11D10828EEF9FEF2996CC
:101CC000ECE00C947E109DE2C6CF90E2C4CF2D9341
:101CD00081508111FCCFCE0ED11CE0E0D0CF8EE63A
:101CE000D6018C9391E6DBCF9D938150E0CF482FB6
:101CF000447082FF3DC084E0911101C083E08F15E4
:101D000010F4EF2DE81BD6018E2F20E2552309F1A8
:101D1000992329F0D6019C93C60101966C01960186
:101D20002D5F3F4FE2FE1BC089E4D6018C938EE409
:101D300011968C93119786E412968C93D9018E2F6D
:101D400090E2882309F4B5CF9D938150FACF2D936B
:101D500081508111FCCFCE0ED11CE0E0D9CF89E6B5
:101D6000D6018C938EE611968C93119786E6E4CF7C
:101D70009B0177FF02C030E020E0A1E0B0E09111CC
:101D800002C0B0E0A0E0F9013196AE0FBF1F8B2C6E
:101D9000912CBB2009F461C05401EFEFAE1ABE0ACA
:101DA000AA0DBB1DFA161B0619F014F04F2D4A1B85
:101DB000511188C0E3FC59C07601A42FB0E2A111F3
:101DC0004FC0C40ED11C992309F45BC040E0D6017A
:101DD0001196F60190836D01552309F448C0012F37
:101DE000060F9A81582F507184FF03C0913309F474
:101DF000015010160CF047C0093008F008E0EEE280
:101E0000FE2E5B01A01AB10885019194819491087E
:101E10002F3F320729F4D601FC92F60131966F016B
:101E20006217730794F1021713077CF5DB01A21BFD
:101E3000B30BAA24A394B12CAC0EBD1EAA0DBB1DDE
:101E400011968C9121503109D6011196281539052A
:101E5000F4F0F60180836D01DBCFB12CA12CA0CF73
:101E6000F701B1937F01A150AACF9111B0CFD60154
:101E7000942F50E302C05D9391509111FCCFC40E9A
:101E8000D11C40E0ACCF01E0BACF80E3DBCF6217DA
:101E9000730731F4963388F4953311F4552369F0C0
:101EA000F6018083FD01842F90E2811108C0A40F08
:101EB000B11D1C9290E080E002CF81E3F1CF9193BD
:101EC0008150F3CF911183CF8ACF283008F027E0DB
:101ED0003327DA01990F311D87FD91600096610566
:101EE000710539F432602E5F3D9330E32A95E1F7B6
:101EF00008959F3F30F080387105610509F03C5F1F
:101F00003C5F3D93913008F08068911DDF93CF9343
:101F10001F930F93FF92EF92192F987F9695E92FB9
:101F200096959695E90FFF27EE53FF4F9927332794
:101F3000EE24FF24A701E70105900894079428F4F4
:101F4000360FE71EF81E491F511D660F771F881FA9
:101F5000991F0694A1F70590079428F4E70EF81E40
:101F6000491F561FC11D770F881F991F661F0694B2
:101F7000A1F70590079428F4F80E491F561FC71FB4
:101F8000D11D880F991F661F771F0694A1F7059032
:101F9000079420F4490F561FC71FD81F990F661FBB
:101FA000771F881F0694A9F784911095177041F048
:101FB000D695C79557954795F794E7941A95C1F725
:101FC000E8E6F0E06894159015913591659195914A
:101FD00005907FE27395E118F10A430B560BC90B8C
:101FE000D009C0F7E10CF11E431F561FC91FD01DB9
:101FF0007EF4703311F48A95E6CFE894015030F006
:10200000080F0AF40027021708F4202F2395022F47
:102010007A3328F079E37D932A95E9F710C07D9310
:102020002A9589F60694979567953795179517948D
:10203000E118F10A430B560BC90BD00998F0239510
:102040007E9173957A3308F070E37C932013B8F790
:102050007E9170617D9330F0839571E37D9370E3A1
:102060002A95E1F71124EF90FF900F911F91CF91E6
:10207000DF91992787FD90950895052E97FB1EF413
:1020800000940E94541057FD07D00E94931007FC43
:1020900003D04EF40C9454105095409530952195F2
:1020A0003F4F4F4F5F4F0895909580957095619584
:1020B0007F4F8F4F9F4F08952F923F924F925F9285
:1020C0006F927F928F929F92AF92BF92CF92DF9248
:1020D000EF92FF920F931F93CF93DF93CDB7DEB7AD
:1020E000CA1BDB0B0FB6F894DEBF0FBECDBF099441
:1020F0002A88398848885F846E847D848C849B8498
:10210000AA84B984C884DF80EE80FD800C811B81A5
:10211000AA81B981CE0FD11D0FB6F894DEBF0FBED4
:10212000CDBFED010895A1E21A2EAA1BBB1BFD0134
:102130000DC0AA1FBB1FEE1FFF1FA217B307E407A6
:10214000F50720F0A21BB30BE40BF50B661F771FFE
:10215000881F991F1A9469F76095709580959095DE
:102160009B01AC01BD01CF010895A29FB001B39FB7
:10217000C001A39F700D811D1124911DB29F700D90
:10218000811D1124911D08955058BB27AA270E9434
:10219000DC100C94AE110E94A01138F00E94A7111F
:1021A00020F039F49F3F19F426F40C949D110EF49D
:1021B000E095E7FB0C949711E92F0E94BF1158F3AB
:1021C000BA17620773078407950720F079F4A6F51C
:1021D0000C94E1110EF4E0950B2EBA2FA02D0B01FB
:1021E000B90190010C01CA01A0011124FF27591B5C
:1021F00099F0593F50F4503E68F11A16F040A22F62
:10220000232F342F4427585FF3CF469537952795D2
:10221000A795F0405395C9F77EF41F16BA0B620BD1
:10222000730B840BBAF09150A1F0FF0FBB1F661F18
:10223000771F881FC2F70EC0BA0F621F731F841F5B
:1022400048F4879577956795B795F7959E3F08F081
:10225000B0CF9395880F08F09927EE0F9795879543
:1022600008950E94731108F481E00895E89409C06C
:1022700097FB3EF490958095709561957F4F8F4FB9
:102280009F4F9923A9F0F92F96E9BB279395F695CF
:10229000879577956795B795F111F8CFFAF4BB0F4D
:1022A00011F460FF1BC06F5F7F4F8F4F9F4F16C0B1
:1022B000882311F096E911C0772321F09EE8872F3B
:1022C000762F05C0662371F096E8862F70E060E0F7
:1022D0002AF09A95660F771F881FDAF7880F969570
:1022E000879597F90895990F0008550FAA0BE0E814
:1022F000FEEF16161706E807F907C0F012161306C8
:10230000E407F50798F0621B730B840B950B39F407
:102310000A2661F0232B242B252B21F408950A266D
:1023200009F4A140A6958FEF811D811D089597F9AD
:102330009F6780E870E060E008959FEF80EC08956B
:1023400000240A9416161706180609060895002494
:102350000A9412161306140605060895092E03940E
:10236000000C11F4882352F0BB0F40F4BF2B11F482
:1023700060FF04C06F5F7F4F8F4F9F4F089557FDE1
:102380009058440F551F59F05F3F71F04795880FE3
:1023900097FB991F61F09F3F79F08795089512167A
:1023A00013061406551FF2CF4695F1DF08C0161626
:1023B00017061806991FF1CF8695710561050894D7
:1023C0000895E894BB2766277727CB0197F90895EE
:1023D0000E94731108F48FEF08950E9400120C946C
:1023E000AE110E94A01138F00E94A71120F0952391
:1023F00011F00C9497110C949D1111240C94E2117E
:102400000E94BF1170F3959FC1F3950F50E0551FC7
:10241000629FF001729FBB27F00DB11D639FAA2739
:10242000F00DB11DAA1F649F6627B00DA11D661F88
:10243000829F2227B00DA11D621F739FB00DA11DA9
:10244000621F839FA00D611D221F749F3327A00D63
:10245000611D231F849F600D211D822F762F6A2FFF
:1024600011249F5750409AF0F1F088234AF0EE0F64
:10247000FF1FBB1F661F771F881F91505040A9F791
:102480009E3F510580F00C9497110C94E2115F3F30
:10249000E4F3983ED4F3869577956795B795F795CD
:1024A000E7959F5FC1F7FE2B880F911D9695879545
:1024B00097F908950E947311880B990B089597FB63
:1024C000072E16F4009407D077FD09D00E947A12E7
:1024D00007FC05D03EF4909581959F4F0895709527
:1024E00061957F4F08950E94B510B7FF0895821B34
:1024F000930B0895AA1BBB1B51E107C0AA1FBB1F6A
:10250000A617B70710F0A61BB70B881F991F5A957F
:10251000A9F780959095BC01CD010895EE0FFF1F9E
:102520000590F491E02D0994F894FFCF3E033E030B
:1025300001000040001400540007050700000000DF
:102540000000000000DF033F036C032C049D037BAD
:10255000038F03000000000A05DD042006B304D643
:1025600004C304B4040000000078073F0320064CB5
:102570000445494E004155530053656E736F7220F8
:102580004572726F7221004E6F2076616C756573B3
:102590002E0054656D702E3A2020200043004665C1
:1025A00075636874653A2000202500506F74693A9D
:1025B000202020200054726F636B6E657220005FD4
:0C25C0005F31005F535F00305F5F000080
:107800000C94343C0C94513C0C94513C0C94513CE1
:107810000C94513C0C94513C0C94513C0C94513CB4
:107820000C94513C0C94513C0C94513C0C94513CA4
:107830000C94513C0C94513C0C94513C0C94513C94
:107840000C94513C0C94513C0C94513C0C94513C84
:107850000C94513C0C94513C0C94513C0C94513C74
:107860000C94513C0C94513C11241FBECFEFD8E036
:10787000DEBFCDBF11E0A0E0B1E0ECE9FFE702C060
:1078800005900D92A230B107D9F712E0A2E0B1E065
:1078900001C01D92AD30B107E1F70E942D3D0C945F
:1078A000CC3F0C94003C982F959595959595959582
:1078B000905D8F708A307CF0282F295A8091C0000B
:1078C00085FFFCCF9093C6008091C00085FFFCCF60
:1078D0002093C6000895282F205DF0CF982F809127
:1078E000C00085FFFCCF9093C6000895EF92FF92F1
:1078F0000F931F93EE24FF2487018091C00087FD22
:1079000017C00894E11CF11C011D111D81E4E8164B
:1079100082E4F8068FE0080780E0180770F3E09132
:107920000401F091050109958091C00087FFE9CF1E
:107930008091C6001F910F91FF90EF9008950E94D3
:10794000763C982F8091C00085FFFCCF9093C600B5
:1079500091362CF490330CF09053892F089597555D
:10796000892F08951F930E949F3C182F0E949F3CCF
:107970001295107F810F1F9108951F93182F882350
:1079800021F00E94763C1150E1F71F9108951F935A
:10799000182F0E94763C803249F0809103018F5F5E
:1079A000809303018530C1F01F9108958091C0003C
:1079B00085FFFCCF84E18093C6008091C00085FFE5
:1079C000FCCF1093C6008091C00085FFFCCF80E102
:1079D0008093C6001F910895E0910401F091050184
:1079E00009951F9108950E94763C803241F0809164
:1079F00003018F5F80930301853081F008958091AA
:107A0000C00085FFFCCF84E18093C6008091C00058
:107A100085FFFCCF80E18093C6000895E0910401CA
:107A2000F09105010995089540E951E08823A1F0FE
:107A30002D9A28EE33E0FA013197F1F721503040CA
:107A4000D1F72D9828EE33E0FA013197F1F7215064
:107A50003040D1F7815061F708953F924F925F9285
:107A60006F927F928F929F92AF92BF92CF92DF924E
:107A7000EF92FF920F931F93CF93DF93000080E16B
:107A80008093C4001092C50088E18093C10086E015
:107A90008093C2005098589A259A81E00E94143D24
:107AA00024E1F22E9EE1E92E85E9D82E0FE0C02ECA
:107AB00010E1B12EAA24A394B1E49B2EA6E58A2E50
:107AC000F2E57F2EE0E26E2E79E4572E63E5462E36
:107AD00050E5352E0E94763C8033B1F18133B9F107
:107AE000803409F46FC0813409F476C0823409F41B
:107AF00085C0853409F488C0803531F1823521F1A3
:107B0000813511F1853509F485C0863509F48DC0BC
:107B1000843609F496C0843709F403C1853709F423
:107B200072C1863709F466C0809103018F5F80932C
:107B30000301853079F6E0910401F0910501099582
:107B40000E94763C803351F60E94F33CC3CF0E94E2
:107B5000763C803249F78091C00085FFFCCFF092DF
:107B6000C6008091C00085FFFCCF9092C600809136
:107B7000C00085FFFCCF8092C6008091C00085FFC9
:107B8000FCCF7092C6008091C00085FFFCCF609250
:107B9000C6008091C00085FFFCCF5092C600809146
:107BA000C00085FFFCCF4092C6008091C00085FFD9
:107BB000FCCF3092C6008091C00085FFFCCFB09210
:107BC000C60088CF0E94763C863808F4BDCF0E945C
:107BD000763C0E94F33C7ECF0E94763C803809F4CC
:107BE0009CC0813809F40BC1823809F43CC1883942
:107BF00009F48FC080E00E94C73C6CCF84E10E94F2
:107C0000BD3C0E94F33C66CF85E00E94BD3C0E94D3
:107C1000F33C60CF0E94763C809306010E94763C44
:107C2000809307010E94F33C55CF0E94763C80333D
:107C300009F41DC183E00E94BD3C80E00E94C73C66
:107C400049CF0E94763C809309020E94763C809343
:107C5000080280910C028E7F80930C020E94763C79
:107C6000853409F415C18091080290910902892B8D
:107C700089F000E010E00E94763CF801E85FFE4FDA
:107C800080830F5F1F4F80910802909109020817AF
:107C9000190788F30E94763C803209F045CF809125
:107CA0000C0280FF01C16091060170910701660F0F
:107CB000771F7093070160930601A0910802B091AD
:107CC00009021097C9F0E8E0F1E09B01AD014E0F09
:107CD0005F1FF999FECF32BD21BD819180BDFA9A17
:107CE000F99A2F5F3F4FE417F50799F76A0F7B1F4B
:107CF00070930701609306018091C00085FFFCCF5F
:107D0000F092C6008091C00085FFFCCFB092C60003
:107D1000E1CE83E00E94C73CDDCE82E00E94C73CFA
:107D2000D9CE0E94763C809309020E94763C8093D3
:107D300008028091060190910701880F991F909386
:107D40000701809306010E94763C853409F4A6C0A1
:107D500080910C028E7F80930C020E94763C8032D0
:107D600009F0B8CE8091C00085FFFCCFF092C6002C
:107D7000609108027091090261157105B9F140E046
:107D800050E080910C02A82FA170B82FB27011C0E2
:107D9000BB2309F45CC0E0910601F0910701319624
:107DA000F0930701E09306014F5F5F4F46175707B7
:107DB000E8F4AA2369F3F999FECF209106013091E6
:107DC000070132BD21BDF89A90B58091C00085FFB2
:107DD000FCCF9093C6002F5F3F4F30930701209355
:107DE00006014F5F5F4F4617570718F38091C00099
:107DF00085FDE5CE8091C00085FFF8CFE0CE81E023
:107E00000E94C73C67CE0E94763C803209F08CCE3F
:107E10008091C00085FFFCCFF092C6008091C00029
:107E200085FFFCCFE092C6008091C00085FFFCCFAB
:107E3000D092C6008091C00085FFFCCFC092C600E2
:107E40008091C00085FFFCCFB092C60043CEE09188
:107E50000601F091070194918091C00085FFFCCF4D
:107E60009093C6009CCF80E10E94C73C33CE0E9415
:107E7000763C0E94763C182F0E94763C112309F430
:107E800083C0113009F484C08FE00E94C73C22CE29
:107E900080910C02816080930C02E5CE80910C02EF
:107EA000816080930C0259CF809107018823880F4D
:107EB000880B8A2180930B02809106019091070123
:107EC000880F991F90930701809306018091080203
:107ED00080FF09C080910802909109020196909359
:107EE000090280930802F894F999FECF1127E091D6
:107EF0000601F0910701C8E0D1E08091080290915D
:107F00000902103091F40091570001700130D9F34B
:107F100003E000935700E89500915700017001308D
:107F2000D9F301E100935700E89509901990009169
:107F3000570001700130D9F301E000935700E89534
:107F40001395103498F011270091570001700130FB
:107F5000D9F305E000935700E895009157000170B0
:107F60000130D9F301E100935700E895329602976A
:107F700009F0C7CF103011F00296E5CF112480919F
:107F8000C00085FFB9CEBCCE8EE10E94C73CA2CD19
:0E7F900085E90E94C73C9ECDF894FFCF80008B
:00000001FF
